:020000040800F2
:1000000000C00020ED0E000891030008350F000825
:100010009303000895030008970300080000000000
:10002000000000000000000000000000990300082C
:100030009B03000800000000350F0008350F000882
:10004000350F0008350F0008350F0008350F000880
:10005000350F0008350F0008350F0008350F000870
:10006000350F0008350F0008350F0008350F000860
:10007000350F0008350F0008350F0008350F000850
:10008000350F0008350F0008350F0008350F000840
:10009000350F0008350F0008350F0008350F000830
:1000A000350F0008350F0008350F0008350F000820
:1000B000350F0008350F0008350F0008350F000810
:1000C000350F0008350F0008350F0008350F000800
:1000D000350F0008350F0008350F0008350F0008F0
:1000E000350F0008350F0008350F0008350F0008E0
:1000F000350F0008350F0008350F0008350F0008D0
:10010000350F0008350F0008350F0008350F0008BF
:10011000350F0008350F00089D030008350F000853
:10012000350F0008350F0008350F0008350F00089F
:1001300000000000000000000000000000000000BF
:1001400000000000000000000000000000000000AF
:10015000000000000000000000000000000000009F
:10016000000000000000000000000000000000008F
:10017000000000000000000000000000000000007F
:10018000000000000000000000000000000000006F
:10019000000000000000000000000000000000005F
:1001A000000000000000000000000000000000004F
:1001B000000000000000000000000000000000003F
:1001C000000000000000000000000000000000002F
:1001D000000000000000000000000000000000001F
:0401E0005FF8E0F1F3
:1001E40010B5054C237833B9044B13B10448AFF36D
:1001F40000800123237010BD0C00002000000000CB
:10020400900F000808B5034B1BB103490348AFF333
:10021400008008BD0000000010000020900F0008BE
:1002240030B591B01022002109A800F0A7FE0021EA
:10023400142201A800F0A2FE022401224FF480330C
:100244000025CDE90623CDE90D434FF4E01306A8BC
:100254000A920F93089500F051FA0F23CDE9013467
:100264004FF48063214601A8CDE90435039500F0DD
:100274001BFC11B030BD000008B500F027FAFFF7F1
:10028400CFFF00F00BF800F03DF8024800F0BEF894
:10029400FEE700BF280000207047000010B586B0BC
:1002A4001022002102A800F069FE144B144C9A6934
:1002B400204642F020029A619A694FF4807102F05C
:1002C40020020092009A9A6942F004029A619B69A2
:1002D400002203F004030193019B00F06BFD4FF433
:1002E400807201230021CDE9022302232046CDE9B7
:1002F400041302A900F074FC06B010BD0010024003
:100304000008014041F61F4313B50E4A0E4800246D
:10031400C0E9002341F28733CDE900448460C3601F
:10032400846100F075F908B1FFF7B6FF6946064825
:10033400CDE9004400F086F908B1FFF7ADFF02B043
:1003440010BD00BF001000402800002007B50E4B70
:1003540002689A4215D103F50033DA69012142F0AB
:100364001002DA61DB69002203F0100301933620E6
:10037400019B00F03DFD362003B05DF804EB00F076
:1003840069BD03B05DF804FB001000407047FEE750
:10039400FEE7FEE770477047014800F04BB800BF26
:1003A400280000200268044B9A4204D14FF4807163
:1003B400024800F004BD70470010004000080140EE
:1003C400104B07B59A69052042F001029A619A69B7
:1003D40002F001020092009ADA6942F08052DA6176
:1003E400DB6903F080530193019B00F0EFFC064AA4
:1003F400536823F0E06343F08063536003B05DF817
:1004040004FB00BF0010024000000140036800200C
:10041400DA6842F00102DA609A6802F00702062AFA
:100424001EBF1A6842F001021A6070477047704795
:1004340070477047036810B51A69044691070ED5D2
:10044400DA6892070BD56FF002021A610122027773
:100454009B699B0777D0FFF7EAFF00232377236884
:100464001A69500710D5DA6851070DD56FF00402E8
:100474001A61022222779B69204613F4407F68D0D8
:10048400FFF7D5FF0023237723681A6912070FD5D6
:10049400DA6810070CD56FF008021A61042222777B
:1004A400DB69204699075AD0FFF7C1FF0023237761
:1004B40023681A69D20610D5DA68D0060DD56FF014
:1004C40010021A6108222277DB69204613F4407F68
:1004D4004BD0FFF7ACFF0023237723681A69D107B9
:1004E40008D5DA68D20705D56FF0010220461A61F3
:1004F400FFF758FF23681A69100608D5DA68110651
:1005040005D56FF0800220461A6100F0BAF823681E
:100514001A69520608D5DA68500605D56FF040020C
:1005240020461A61FFF785FF23681A69910622D5D0
:10053400DA6892061FD56FF020022046BDE810400D
:100544001A6100F09DB8FFF771FF2046FFF770FFB6
:1005540083E7FFF76BFF2046FFF76AFF92E7FFF799
:1005640065FF2046FFF764FFA0E7FFF75FFF204623
:10057400FFF75EFFAFE710BD244A0368904212D034
:1005840002F5006290420ED0B0F1804F0BD0A2F57C
:100594009832904207D002F58062904203D002F56F
:1005A400806290421DD14A6823F070031343174AB6
:1005B400904212D002F5006290420ED0B0F1804F0A
:1005C4000BD0A2F59832904207D002F58062904297
:1005D40003D002F58062904203D1CA6823F44073C9
:1005E40013434A6923F08003134303608B68C36297
:1005F4000B688362054B984203D003F5006398426D
:1006040001D10B690363012343617047002C01404E
:1006140010B50446A0B190F83D3003F0FF021BB9B9
:1006240080F83C20FFF792FE0223206884F83D30D6
:10063400211DFFF7A1FF0123002084F83D3010BDE8
:100644000120FCE730B590F83C200346012A4FF026
:10065400020014D01C6883F83D006068A2680D682D
:10066400496820F0700022F0800228430A43606049
:10067400A2600020012283F83C0083F83D2030BDB5
:100684007047704738B50E4B054618784FF47A73A7
:10069400B3FBF0F30B4A1068B0FBF3F000F0E8FB97
:1006A400044658B90F2D09D8024629464FF0FF30A9
:1006B40000F09EFB2046044B1D6038BD0120FCE782
:1006C400000000200800002004000020074A08B5AC
:1006D4001368032043F01003136000F077FB00203D
:1006E400FFF7D0FFFFF76CFE002008BD002002409A
:1006F400014B1868704700BF680000202DE9F341E2
:10070400054638B30368DB0710D42B689F075ED413
:100714002B68190700F195802B685A0700F1BF80F8
:10072400E869002840F02C81002029E08F4C6368A0
:1007340003F00C03042B07D0636803F00C03082BAD
:100744000AD16368DE0307D523689C03DDD56B6893
:10075400002BDAD1012013E06B68B3F5803F12D18E
:10076400236843F480332360FFF7C2FF06462368FF
:100774009803CAD4FFF7BCFF801B6428F7D9032071
:1007840002B0BDE8F0819BB9236823F48033236071
:10079400236823F480232360FFF7AAFF0646236817
:1007A4009903B2D5FFF7A4FF801B6428F7D9E6E7C5
:1007B400B3F5A02F236803D143F480232360CFE74C
:1007C40023F480332360236823F48023CBE7674C2E
:1007D400636813F00C0F07D0636803F00C03082B55
:1007E40010D16368DA030DD423689B0702D52B6903
:1007F400012BAFD123686A6923F0F80343EAC203EB
:10080400236085E72A695A4B6AB101221A60FFF70F
:100814006FFF064623689F07ECD4FFF769FF801B30
:100824000228F7D9ABE71A60FFF762FF0646236890
:1008340098077FF56DAFFFF75BFF801B0228F6D9A1
:100844009DE7AA69494E4B4BDAB101221A60FFF7C2
:100854004FFF0446736A9B070DD54FF4FA52464B7B
:100864001B68B3FBF2F3019300BF019B5A1E019274
:10087400002BF9D150E7FFF73BFF001B0228E9D911
:100884007DE71A60FFF734FF0446736A9F077FF51C
:1008940043AFFFF72DFF001B0228F6D96FE7334C57
:1008A400E369D80024D40127E36943F08053E3616A
:1008B400E36903F080530093009B304E3368D905FD
:1008C40018D5EB68012B26D1236A43F00103236278
:1008D400FFF70EFF41F288380646236A9B073FD58F
:1008E400002F3FF41DAFE36923F08053E36117E762
:1008F4000027E2E7336843F480733360FFF7F8FEC0
:1009040080463368DA05DCD4FFF7F2FEA0EB08007A
:100914006428F6D933E7ABB9236A41F2883823F067
:1009240001032362236A23F004032362FFF7E0FE3A
:100934000646236A9807D3D5FFF7DAFE801B4045A5
:10094400F7D91CE7052B236A03D143F00403236280
:10095400BAE723F001032362236A23F00403B6E712
:10096400FFF7C6FE801B4045B7D908E700100240D8
:10097400000042428004424208000020007000400F
:100984002A4B5A681C4602F00C02082A3DD0002368
:10099400274E022833602BD1FFF7AAFE07462368AF
:1009A40099011FD42B6AB3F5803F05D16268A96809
:1009B40022F400320A436260696A62680B4322F4DB
:1009C40074121343636001233360FFF791FE0546FD
:1009D40023689A013FF5A8AEFFF78AFE401B022860
:1009E400F6D9CCE6FFF784FEC01B0228D7D9C6E6A9
:1009F400FFF77EFE054623689B017FF595AEFFF762
:100A040077FE401B0228F6D9B9E601283FF4B8AEB8
:100A14005B682A6A03F4803191427FF49BAE6A6A70
:100A240003F4701393423FF47FAE93E60010024048
:100A34006000424230B5184B87B002AC03F1100598
:100A4400224618685968083303C2AB421446F7D1EA
:100A540040F201231149ADF804304B6803F00C0255
:100A6400082A17D1C3F3834206A80244DB0312F811
:100A7400102C0CD54B680A48C3F34043504306AAD4
:100A8400134413F8143CB0FBF3F007B030BD054831
:100A94005043FAE70248F8E7A80F000800100240A4
:100AA40000127A0000093D002DE9F0410D4604468C
:100AB40010B90120BDE8F081444A136803F007032C
:100AC4008B4228D321688E0730D4CA0743D43F4AC7
:100AD400136803F00703AB4265D822683C4D12F05B
:100AE400040F6CD1130706D56B68226923F4605395
:100AF40043EAC2036B60FFF79DFF6B68354AC3F39B
:100B04000313D35CD840344B1860344B1868FFF798
:100B1400B9FD0020CEE7136823F007030B431360ED
:100B2400136803F007038B42C3D1CBE7284B11F0C2
:100B3400040F1EBF5A6842F4E0625A60080742BFBD
:100B44005A6842F460525A605A68A06822F0F0026F
:100B540002435A60B9E762681D4E012A33681AD10C
:100B640013F4003FA5D0736841F2883823F00303DF
:100B740013437360FFF7BCFD07467368626803F0B4
:100B84000C03B3EB820FA2D0FFF7B2FDC01B4045AC
:100B9400F3D903208EE7022A02D113F0007FE1E7A4
:100BA40013F0020FDEE7136823F007032B431360EF
:100BB400136803F00703AB427FF47BAF8DE76B68E8
:100BC400E16823F4E0630B436B608BE70020024091
:100BD40000100240B90F00080800002004000020A3
:100BE4002DE9F74F002216466B4F6C4BDFF8B4C16A
:100BF400DFF8B4E10C6834FA06F502D103B0BDE8BD
:100C0400F08F4FF0010808FA06F804EA080538EAFC
:100C1400040440F082804C68032C07D8013C022C69
:100C240000F28D80DFE804F09EA3A900122C00F0EE
:100C3400A18074D8112C00F09780FF2D98BF8246B4
:100C44004FF00F0988BF00F1040A4FEA8604DAF86E
:100C5400008088BF203C09FA04FB28EA0B0802FA4A
:100C640004F448EA0404CAF80040D1F804A01AF0D5
:100C7400805F52D0BC6926F0030844F00104BC61D3
:100C8400BC6908F1804804F00104019408F5803837
:100C940006F0030B019C4FEA8B0BD8F8084009FAC5
:100CA4000BF924EA09093E4CA0426AD004F5806499
:100CB400A04268D004F58064A04266D004F5806444
:100CC400A04264D004F58064A04262D060450CBFA9
:100CD4000524062404FA0BF444EA0904C8F808407D
:100CE4001C681AF4803F14BF2C43AC431C605C683E
:100CF4001AF4003F14BF2C43AC435C609C681AF4A4
:100D0400801F14BF2C43AC439C60DC681AF4001FA2
:100D140014BF254324EA0505DD6001366AE77445FE
:100D24000DD018D8DFF884904C4508D009F5702907
:100D34004C4504D0A9F580194C457FF47EAF8A68F0
:100D4400EAB1012A08BFC0F810804FF0080218BFAA
:100D5400C0F8148071E7DFF858904C45EFD009F5DE
:100D64008039E9E7CA6868E7CA68043265E7CA688F
:100D7400083262E7CA680C325FE700225DE70422AA
:100D84005BE70024A6E70124A4E70224A2E70324E6
:100D9400A0E704249EE700BF0010024000040140C5
:100DA40000080140001C0140000022100000121045
:100DB400000031100AB1016170470904FBE7C36800
:100DC4000B4214BF416101617047000007490302EF
:100DD400CA6803F4E06322F4E0621204120C1343C1
:100DE40043F0BF6343F40033CB60704700ED00E091
:100DF400164B30B5DC68C4F30224C4F10703251D87
:100E0400042B28BF0423062D4FF0FF3598BF002480
:100E140005FA03F388BF033C21EA0303A34005FA60
:100E240004F422EA0402002843EA0203ACBF00F1FE
:100E34006040074A4FEA0313DBB2ABBF00F56140E1
:100E440000F00F0080F80033135430BD00ED00E0D3
:100E540014ED00E0002808DB0123420900F01F0024
:100E640003FA00F0014B43F82200704700E100E070
:100E74000138B0F1807F0AD2F021064B064A58604F
:100E840082F823100020072298601A60704701201E
:100E9400704700BF10E000E000ED00E00E4B1A6860
:100EA40042F001021A6059680C4A0A405A601A68F2
:100EB40022F0847222F480321A601A6822F48022AA
:100EC4001A605A6822F4FE025A604FF41F029A60B4
:100ED400034B044A9A607047001002400000FFF878
:100EE40000ED00E000400008002103E00B4B5B58DC
:100EF400435004310A480B4B42189A42F6D30A4A2B
:100F040002E0002342F8043B084B9A42F9D3FFF76E
:100F1400C5FF00F00FF8FFF7AFF97047D40F0008D2
:100F2400000000200C0000200C0000206C000020B9
:100F3400FEE7000070B500260C4D0D4C641BA41098
:100F4400A64209D100F022F800260A4D0A4C641B7F
:100F5400A410A64205D170BD55F8043B984701364C
:100F6400EEE755F8043B98470136F2E7CC0F00084A
:100F7400CC0F0008CC0F0008D00F00080346024431
:100F8400934200D1704703F8011BF9E7F8B500BF9D
:100F9400F8BC08BC9E467047F8B500BFF8BC08BC56
:040FA4009E467047AE
:100FA80002030405060708090A0B0C0D0E0F1010A2
:100FB800000000000000000000010203040607080A
:040FC800090000001C
:040FCC00090200080E
:040FD000E50100082F
:0C0FD40001000000100000000024F400E8
:0400000508000EEDF4
:00000001FF
