:020000040800F2
:1000000000C00020DD100008C50F00082511000801
:10001000C70F0008C90F0008CB0F00080000000040
:10002000000000000000000000000000CD0F0008EC
:10003000CF0F00080000000025110008251100085E
:1000400025110008251100082511000825110008B8
:1000500025110008251100082511000825110008A8
:100060002511000825110008251100082511000898
:100070002511000825110008251100082511000888
:100080002511000825110008251100082511000878
:100090002511000825110008251100082511000868
:1000A0002511000825110008251100082511000858
:1000B0002511000825110008251100082511000848
:1000C0002511000825110008251100082511000838
:1000D0002511000825110008251100082511000828
:1000E0002511000825110008251100082511000818
:1000F0002511000825110008251100082511000808
:1001000025110008251100082511000825110008F7
:100110002511000825110008D10F0008251100083D
:1001200025110008251100082511000825110008D7
:1001300000000000000000000000000000000000BF
:1001400000000000000000000000000000000000AF
:10015000000000000000000000000000000000009F
:10016000000000000000000000000000000000008F
:10017000000000000000000000000000000000007F
:10018000000000000000000000000000000000006F
:10019000000000000000000000000000000000005F
:1001A000000000000000000000000000000000004F
:1001B000000000000000000000000000000000003F
:1001C000000000000000000000000000000000002F
:1001D000000000000000000000000000000000001F
:0401E0005FF8E0F1F3
:1001E40010B5054C237833B9044B13B10448AFF36D
:1001F40000800123237010BD3C0400200000000097
:100204005012000808B5034B1BB103490348AFF370
:10021400008008BD000000004004002050120008C7
:1002240010B504460E4B18784FF47A73B3FBF0F311
:100234000C4A1068B0FBF3F000F084F868B90F2C96
:1002440001D901200AE0002221464FF0FF3000F0DE
:1002540037F8054B1C60002000E0012010BD00BFF2
:1002640000000020080000200400002008B5074A10
:10027400136843F010031360032000F00FF800200C
:10028400FFF7CEFF00F076FE002008BD00200240FC
:10029400014B1868704700BF58040020074AD36810
:1002A40023F4E0631B041B0C000200F4E06003432E
:1002B40043F0BF6343F40033D360704700ED00E0C4
:1002C40030B4174BDB68C3F30223C3F10704042CD7
:1002D40028BF04241D1D062D18D9033B4FF0FF35FC
:1002E40005FA04F421EA0401994005FA03F322EA29
:1002F4000303194300280BDB0901C9B200F1604074
:1003040000F5614080F8001330BC70470023E5E736
:1003140000F00F000901C9B2024B1954F4E700BF01
:1003240000ED00E014ED00E0002807DB00F01F0200
:10033400400901239340024A42F82030704700BF2D
:1003440000E100E00138B0F1807F0AD2064B58602A
:10035400064AF02182F823100020986007221A60D0
:1003640070470120704700BF10E000E000ED00E09E
:10037400F0B482B000252C46ABE0854FBB4210D0D0
:1003840007D9844FBB420CD007F58037BB4208D055
:1003940013E0A7F58017BB4203D007F57027BB42D3
:1003A40007D18B68002B60D0012B59D042610825FE
:1003B40003E0A7F58017BB42F3D0FF2E57D884463D
:1003C400FF2E57D8A200DCF800300F27974023EA0D
:1003D400070305FA02F21343CCF800304B6813F01C
:1003E400805F75D06C4B9A6942F001029A619B69F7
:1003F40003F001030193019BA208971C674B53F878
:1004040027C004F003039F000F23BB402CEA030C16
:10041400634B984234D003F58063984200F0948093
:1004240003F58063984200F0918003F5806398425D
:1004340000F08E8003F58063984200F08B8003F512
:10044400806398421AD006231BE0CD68B5E7CD68D7
:100454000435B2E7CD680835AFE7CD680C35ACE7B5
:1004640002610825A9E70025A7E70425A5E700F10F
:10047400040CA5E7A4F108029200A4E7052300E018
:100484000023BB4043EA0C030232444F47F82230B6
:100494004B6813F4803F5FD0424A136833431360C0
:1004A4004B6813F4003F5DD03E4A536833435360B6
:1004B4004B6813F4801F5BD03A4A936833439360CC
:1004C4004B6813F4001F59D0364AD3681E43D660D4
:1004D40001340B6833FA04F256D00122A24003EA35
:1004E400020632EA0303F3D14B68122B3FF645AF01
:1004F400122B3FF662AF01A757F823F0A7030008B9
:100504004F040008590400086B040008BF030008E6
:10051400BF030008BF030008BF030008BF030008AF
:10052400BF030008BF030008BF030008BF0300089F
:10053400BF030008BF030008BF030008BF0300088F
:10054400530400085F04000801239AE7022398E794
:10055400032396E7042394E7124A136823EA060365
:1005640013609DE70F4A536823EA060353609FE72D
:100574000C4A936823EA06039360A1E7094AD36807
:1005840023EA0606D660A3E702B0F0BC704700BFBA
:100594000000221000003110001002400000014051
:1005A40000080140000401400AB1016170470904D8
:1005B40001617047C3680B4201D04161704701611A
:1005C4007047000082B0084B1B68084AA2FB032353
:1005D4005B0A00FB03F3019300BF019B5A1E0192C7
:1005E400002BF9D102B0704708000020D34D6210EF
:1005F400002800F0F18170B582B00446036813F05E
:10060400010F2CD0AA4B5B6803F00C03042B1DD004
:10061400A74B5B6803F00C03082B12D06368B3F597
:10062400803F41D0002B55D103F1804303F50433BF
:100634001A6822F480321A601A6822F480221A603E
:1006440037E09B4B5B6813F4803FE7D0984B1B6803
:1006540013F4003F03D06368002B00F0BF812368CC
:1006640013F0020F75D0924B5B6813F00C0F5FD040
:100674008F4B5B6803F00C03082B54D02369002BC9
:1006840000F089808B4B01221A60FFF701FE0546BA
:10069400874B1B6813F0020F74D1FFF7F9FD401B61
:1006A4000228F5D903209EE1814A136843F480337C
:1006B4001360636843B3FFF7EBFD05467C4B1B688F
:1006C40013F4003FCBD1FFF7E3FD401B6428F5D9B9
:1006D400032088E1B3F5A02F09D0754B1A6822F4E2
:1006E40080321A601A6822F480221A60E1E703F16A
:1006F4008043A3F53C331A6842F480221A601A68D6
:1007040042F480321A60D4E7FFF7C2FD0546684B15
:100714001B6813F4003FA2D0FFF7BAFD401B642806
:10072400F5D903205FE1624B5B6813F4803FA5D1E8
:100734005F4B1B6813F0020F03D02369012B40F0B9
:100744004F815B4A136823F0F803616943EAC103EC
:100754001360236813F0080F32D0A369002B45D02F
:10076400554B01221A60FFF793FD0546504B5B6A17
:1007740013F0020F21D1FFF78BFD401B0228F5D99E
:10078400032030E14A4A136823F0F803616943EA1D
:10079400C1031360DDE7474B00221A60FFF778FDC1
:1007A4000546434B1B6813F0020FD2D0FFF770FDD0
:1007B400401B0228F5D9032015E10120FFF702FFB1
:1007C400236813F0040F00F09780394BDB6913F0B2
:1007D400805F1DD1364BDA6942F08052DA61DB6901
:1007E40003F080530193019B012512E0324B002258
:1007F4001A60FFF74DFD05462D4B5B6A13F0020F9F
:10080400DED0FFF745FD401B0228F5D90320EAE0BE
:1008140000252A4B1B6813F4807F11D0E368012B59
:1008240022D0002B38D103F1804303F504331A6A34
:1008340022F001021A621A6A22F004021A6218E013
:100844001E4A136843F480731360FFF721FD0646C4
:100854001A4B1B6813F4807FE0D1FFF719FD801B4E
:100864006428F5D90320BEE0114A136A43F001035A
:100874001362E36873B3FFF70BFD06460C4B1B6A68
:1008840013F0020F37D1FFF703FD801B41F28833C9
:100894009842F3D90320A6E0052B11D0044B1A6A21
:1008A40022F001021A621A6A22F004021A62E0E7D4
:1008B40000100240000042428004424200700040A6
:1008C4004D4B1A6A42F004021A621A6A42F001029B
:1008D4001A62CEE7FFF7DCFC0646474B1B6A13F0AF
:1008E400020F08D0FFF7D4FC801B41F288339842F2
:1008F400F3D9032077E0E5B9E369002B72D03E4ACF
:10090400526802F00C02082A56D0022B17D03B4B37
:1009140000221A60FFF7BCFC0446374B1B6813F037
:10092400007F47D0FFF7B4FC001B0228F5D9032051
:1009340059E0314AD36923F08053D361DCE72F4B6C
:1009440000221A60FFF7A4FC05462B4B1B6813F02A
:10095400007F06D0FFF79CFC401B0228F5D903203A
:1009640041E0236AB3F5803F1AD023494B6823F44E
:100974007413226A606A024313434B601F4B0122C3
:100984001A60FFF785FC04461B4B1B6813F0007FBD
:100994000ED1FFF77DFC001B0228F5D9032022E0CD
:1009A400154A536823F40033A1680B435360DCE712
:1009B400002018E0002016E0012B16D00E4B5B68D7
:1009C40003F48031226A914211D103F47013626AF4
:1009D40093420ED1002006E001207047012002E07E
:1009E400012000E0002002B070BD0120FBE70120DF
:1009F400F9E70120F7E700BF00100240600042421F
:100A040086B0164B0FCB0DF1180C0CE90F0040F219
:100A14000123ADF80430124B5B6803F00C02082A82
:100A240002D0104806B07047C3F38342624412F800
:100A3400102C13F4803F0CD0094B5B68C3F3404384
:100A4400634413F8143C074800FB02F0B0FBF3F0D6
:100A5400E8E7054800FB02F0E4E700BF681200087D
:100A64000010024000127A0000093D00002800F046
:100A7400A08070B50D460446524B1B6803F0070373
:100A84008B420BD24F4A136823F007030B431360C6
:100A9400136803F007038B4240F08D80236813F042
:100AA400020F17D013F0040F04D0474A536843F4DD
:100AB400E0635360236813F0080F04D0424A53687C
:100AC40043F460535360404A536823F0F003A16831
:100AD4000B435360236813F0010F31D06368012B7B
:100AE40020D0022B25D0384A126812F0020F64D0AD
:100AF40035494A6822F0030213434B60FFF7C8FBF1
:100B04000646314B5B6803F00C036268B3EB820F5B
:100B140016D0FFF7BDFB801B41F288339842F0D911
:100B2400032045E0284A126812F4003FE0D1012076
:100B34003EE0254A126812F0007FD9D1012037E047
:100B4400204B1B6803F00703AB420AD91D4A136804
:100B540023F007032B431360136803F00703AB422E
:100B64002DD1236813F0040F06D0174A536823F4D9
:100B7400E063E1680B435360236813F0080F07D068
:100B8400114A536823F46053216943EAC103536053
:100B9400FFF736FF0C4B5B68C3F303130B4AD35CBC
:100BA400D8400B4B18600B4B1868FFF739FB00203B
:100BB40070BD012070470120FAE70120F8E7012009
:100BC400F6E700BF00200240001002407C1200083B
:100BD40008000020040000200268D36843F00103E9
:100BE400D3600268936803F00703062B03D01368ED
:100BF40043F001031360002070477047704770474B
:100C0400704710B5044603681A6912F0020F11D038
:100C1400DA6812F0020F0DD06FF002021A6101239C
:100C2400037703689B6913F0030F70D0FFF7E6FFA7
:100C34000023237723681A6912F0040F12D0DA68AC
:100C440012F0040F0ED06FF004021A61022323770E
:100C540023689B6913F4407F5FD02046FFF7CEFFE3
:100C64000023237723681A6912F0080F12D0DA6878
:100C740012F0080F0ED06FF008021A6104232377D4
:100C84002368DB6913F0030F4ED02046FFF7B6FF4D
:100C94000023237723681A6912F0100F12D0DA6840
:100CA40012F0100F0ED06FF010021A610823237790
:100CB4002368DB6913F4407F3DD02046FFF79EFF95
:100CC4000023237723681A6912F0010F03D0DA682E
:100CD40012F0010F36D123681A6912F0800F03D085
:100CE400DA6812F0800F34D123681A6912F0400FC9
:100CF40003D0DA6812F0400F32D123681A6912F077
:100D0400200F03D0DA6812F0200F30D110BDFFF7A6
:100D140074FF2046FFF773FF8AE72046FFF76DFF55
:100D24002046FFF76CFF9BE72046FFF766FF20464F
:100D3400FFF765FFACE72046FFF75FFF2046FFF7AC
:100D44005EFFBDE76FF001021A61204600F046F92C
:100D5400C1E76FF080021A61204600F099F8C3E7FA
:100D64006FF040021A612046FFF74AFFC5E76FF0B3
:100D740020021A61204600F08AF8C7E70368244A73
:100D8400904212D002F5006290420ED0B0F1804F32
:100D94000BD0A2F59832904207D002F580629042BF
:100DA40003D002F58062904203D123F070034A68B5
:100DB4001343174A904212D002F5006290420ED0BB
:100DC400B0F1804F0BD0A2F59832904207D002F5D3
:100DD4008062904203D002F58062904203D123F4F2
:100DE4004073CA68134323F080034A6913430360C2
:100DF4008B68C3620B688362054B984203D003F58A
:100E04000063984201D10B69036301234361704776
:100E1400002C0140B0B110B5044690F83D3063B1E8
:100E2400022384F83D30214651F8040BFFF7A6FF56
:100E3400012384F83D30002010BD80F83C3000F0E0
:100E44002BF9EDE70120704790F83C30012B1CD0C2
:100E540070B4012680F83C60022380F83D300268BB
:100E64005568936825F070050C682C4323F08005C1
:100E74004B682B4354600268936080F83D60002304
:100E840080F83C30184670BC7047022070477047A9
:100E94007047000030B587B0002402940394049492
:100EA4000594144B9A6942F020029A619A6902F0FF
:100EB40020020092009A9A6942F004029A619B69A6
:100EC40003F004030193019B0B4D22464FF4807100
:100ED4002846FFF769FB4FF48073029301230393C1
:100EE40004940223059302A92846FFF741FA07B0A8
:100EF40030BD00BF001002400008014030B591B081
:100F0400002409940B940C94019402940394049483
:100F14000594012206924FF48033079308940A92B1
:100F240002250D950E934FF4E0130F9306A8FFF7D7
:100F34005FFB0F230193029503944FF480630493A2
:100F44000594294601A8FFF791FD11B030BD0000BA
:100F540008B5FFF78BF9FFF7D1FFFFF79BFF00F010
:100F640073F80248FFF738FEFEE700BF5C04002078
:100F74007047000000B583B00F4B9A6942F001023C
:100F84009A619A6902F001020092009ADA6942F0C9
:100F94008052DA61DB6903F080530193019B0520E1
:100FA400FFF77CF9054A536823F0E06343F080635C
:100FB400536003B05DF804FB0010024000000140E0
:100FC4007047FEE7FEE7FEE77047704708B5024842
:100FD400FFF717FE08BD00BF5C04002008B50268D7
:100FE400044B9A4200D008BD4FF480710248FFF7C9
:100FF400E1FAF8E700100040000801400E4B1A68BF
:1010040042F001021A6059680C4A0A405A601A6890
:1010140022F0847222F480321A601A6822F4802248
:101024001A605A6822F4FE025A604FF41F029A6052
:10103400034B044A9A607047001002400000FFF816
:1010440000ED00E00040000800B583B000230093E9
:1010540001930F480F4A026041F61F4242608360C9
:1010640041F28732C2608361FFF7D4FE50B9002396
:101074000093019369460648FFF7E6FE28B903B0DA
:101084005DF804FBFFF774FFF1E7FFF771FFF6E784
:101094005C0400200010004002680E4B9A4200D00D
:1010A400704700B583B003F50033DA6942F01002EB
:1010B400DA61DB6903F010030193019B0022012133
:1010C4003620FFF7FDF83620FFF72EF903B05DF860
:1010D40004FB00BF00100040002103E00B4B5B58F1
:1010E400435004310A480B4B42189A42F6D30A4A39
:1010F40002E0002342F8043B084B9A42F9D3FFF77D
:101104007DFF00F00FF8FFF723FF70479C120008E3
:10111400000000203C0400203C040020C004002007
:10112400FEE7000070B50D4E0D4D761BB61006D0CF
:10113400002455F8043B01349847A642F9D1094EDE
:10114400094D00F083F8761BB61006D0002455F83C
:10115400043B01349847A642F9D170BD90120008AF
:10116400901200089812000890120008024B13B164
:10117400024800F005B87047000000009111000813
:10118400002301461A46184600F01AB838B5084B31
:10119400084D5B1B9C1007D0043B1D44013C55F8D3
:1011A40004399847002CF9D1BDE8384000F054B810
:1011B4009C12000898120008704700BF704700BFD7
:1011C4002DE9F047DFF880A00646DAF800009846DB
:1011D4000F469146FFF7F0FF1A4B1B68D3F84841BE
:1011E40024B365681F2D26DC5EB96B1C0235DAF862
:1011F4000000636044F82570FFF7E0FF0020BDE8BD
:10120400F087012304EB8501C1F88890D4F8882184
:10121400AB401A43022EC4F88821C1F80881E4D1F6
:10122400D4F88C211343C4F88C31DEE703F5A6749B
:10123400C3F84841D5E7DAF80000FFF7BFFF4FF0E5
:10124400FF30DCE78C12000838040020F8B500BF3A
:10125400F8BC08BC9E467047F8B500BFF8BC08BC93
:041264009E467047EB
:1012680002030405060708090A0B0C0D0E0F1010DF
:10127800000000000000000000000000010203045C
:08128800060708091000002010
:081290007111000809020008B9
:04129800E501000864
:10129C0001000000100000000024F4000000000019
:1012AC0000000000FC02002064030020CC0300209E
:1012BC000000000000000000000000000000000022
:1012CC000000000000000000000000000000000012
:1012DC000000000000000000000000000000000002
:1012EC0000000000000000000000000000000000F2
:1012FC0000000000000000000000000000000000E2
:10130C0000000000000000000000000000000000D1
:10131C0000000000000000000000000000000000C1
:10132C0000000000000000000000000000000000B1
:10133C0000000000000000000000000000000000A1
:10134C000000000000000000010000000000000090
:10135C000E33CDAB34126DE6ECDE05000B00000055
:10136C000000000000000000000000000000000071
:10137C000000000000000000000000000000000061
:10138C000000000000000000000000000000000051
:10139C000000000000000000000000000000000041
:0C16CC0000000000000000009C04002052
:04000005080010DD02
:00000001FF
